:02000000EB29EA
:1000060083120313FB01FA01F9018030F800F10CA9
:10001600F00C031C17287408F90775080318750FE8
:10002600FA070318FB0A0310F01F1F287408FA07C3
:1000360075080318750FFB07FB0CFA0CF90CF80C86
:10004600031C0A287B08F3007A08F2007908F100FD
:060056007808F00008002C
:10005C00831603138710831212150C309D040800AD
:10006C00831603130711831212150C309704080022
:0C007C00831203139B011D129D1208004B
:0C00880083120313950117129712080051
:10009400831603131208013EF00000300318013EDA
:1000A400F10083123508F400F50103200630F20054
:1000B4007008F4007108F500720803196628F50C3D
:1000C400F40CF513FF3E5F280430F1007408F000CF
:1000D400710803197128F00D7010FF3E6B28303041
:1000E4007005F3007408F0007508F100F10CF00CD1
:1000F400F113F10CF00CF113700895000F30970513
:06010400730897040800D7
:10010A00831203133508A0003608F1000130F0000D
:10011A00710803199428F00D7010FF3E8E2870089C
:10012A00A100F0097008A200803035078400700829
:0A013A00800584137008800508009A
:1001440083120313A701A801A901AA01AB01AC0101
:10015400AD01AE01AF01B001B101B201B301B4010F
:1001640083168601FF30831286001030FD00FD0BDC
:10017400B9280000FF308316860000308312861BE6
:100184000130A700A8010030061B0130A900AA0114
:100194000030861A0130AB00AC010030061A013081
:1001A400AD00AE01003086190130AF00B00100305F
:1001B40006190130B100B201003086180130B300D5
:0401C400B40108007A
:1001C800831603131208013EF00000300318013EA5
:1001D800F10083123508F400F50103200630F2001F
:1001E8007008F4007108F500720803190029F50C6D
:1001F800F40CF513FF3EF9280430F1007408F00000
:10020800710803190B29F00D7010FF3E05293030D5
:100218007005F3007408F0007508F100F10CF00C9B
:10022800F113F10CF00CF11370089B000F309D05D1
:0602380073089D0408009C
:10023E00A220861F3229A70A0319A80A8030280691
:10024E00F00080307002031D2E291E302702031C81
:10025E00312932292029061F4429A90A0319AA0A7D
:10026E0080302A06F00080307002031D40291E30B7
:10027E002902031C432944293229861E5629AB0A1A
:10028E000319AC0A80302C06F00080307002031D7A
:10029E00522919302B02031C552956294429061EB2
:1002AE006829AD0A0319AE0A80302E06F0008030A0
:1002BE007002031D642919302D02031C6729682959
:1002CE005629861D7A29AF0A0319B00A80303006E6
:1002DE00F00080307002031D762919302F02031CA6
:1002EE0079297A296829061D8C29B10A0319B20ABF
:1002FE0080303206F00080307002031D88291E30D7
:10030E003102031C8B298C297A29861C9E29B30A5B
:10031E000319B40A80303406F00080307002031DD9
:10032E009A291E303302031C9D299E298C29080010
:0E033E0083120313B5014A20B501E420080024
:10034C000630831603139F008312850183168501E3
:10035C0083128701831687010716831212109210DD
:10036C00121092102030831692004420121092101A
:10037C00121092102030831692003E2036202E2030
:10038C008316811781120112811101108110011540
:10039C0083120510851405118515B5014A20B50188
:1003AC00E4200730B5000330B6008520A701A80172
:1003BC00A901AA01AB01AC01AD01AE01AF01B001C5
:0A03CC00B101B201B301B401080051
:1003D600A621071AEF29F029EC291F21290827054C
:1003E600F00028082A05F1002B08F0052C08F10575
:1003F6002D08F0052E08F1052F08F0053008F10547
:1004060031087005F20071083205F3008030F00003
:10041600803073067002031D122A7208033C03180B
:10042600152A9F2129082705F00028082A05F1002A
:100436002B08F0052C08F1052D08F0052E08F1050E
:100446002F08F0053008F10531087005F200710833
:100456003205F3008030F000803073067002031D11
:10046600362A7208023C031C3E2AA030B5004A20F8
:10047600A030B500E4208030F000803034067002F1
:10048600031D472A3308023C031C4F2A5030B5008F
:100496004A20C830B500E42031082F04F1003008A6
:1004A6003204F2008030F000803072067002031DC4
:1004B6005E2A7108023C031C662A6430B5004A2095
:1004C600A030B500E4202D082B04F1002C082E04E2
:1004D600F2008030F000803072067002031D752A2B
:1004E6007108023C031C7D2AA030B5004A20A030CA
:1004F600B500E42029082704F10028082A04F200A0
:100506008030F000803072067002031D8C2A71085C
:10051600023C031C942AC830B5004A205030B5006E
:06052600E420F029952AF3
:02400E004A2F37
:00000001FF
