:02000000602975
:1000060083120313FB01FA01F9018030F800F10CA9
:10001600F00C031C17287408F90775080318750FE8
:10002600FA070318FB0A0310F01F1F287408FA07C3
:1000360075080318750FFB07FB0CFA0CF90CF80C86
:10004600031C0A287B08F3007A08F2007908F100FD
:060056007808F00008002C
:10005C00831603131208013EF00000300318013E12
:10006C00F10083123608F400F50103200630F2008B
:10007C007008F4007108F500720803194A28F50C91
:10008C00F40CF513FF3E43280430F1007408F00023
:10009C00710803195528F00D7010FF3E4F283030B1
:1000AC007005F3007408F0007508F100F10CF00C09
:1000BC00F113F10CF00CF11370089B000F309D053F
:0600CC0073089D0408000A
:1000D200831603131208013EF00000300318013E9C
:1000E200F10083123608F400F50103200630F20015
:1000F2007008F4007108F500720803198528F50CE0
:10010200F40CF513FF3E7E280430F1007408F00071
:10011200710803199028F00D7010FF3E8A283030C4
:100122007005F3007408F0007508F100F10CF00C92
:10013200F113F10CF00CF113700895000F309705D4
:0601420073089704080099
:0C01480083120313950117129712080090
:10015400831603138710831212150C309D040800B4
:10016400831603130711831212150C309704080029
:0C017400831203139B011D129D12080052
:10018000831603138601FF30831286001030FD00B2
:10019000FD0BC8280000FF30831686000030831254
:1001A000861B0130A400A5010030061B0130A6000B
:1001B000A7010030861A0130A800A9010030061AF4
:1001C0000130AA00AB01003086190130AC00AD014E
:1001D000003006190130AE00AF0100308618013042
:0601E000B000B1010800AF
:1001E60083120313F3017308F000F00D701070080A
:1001F600223E84000008F100840A0008F200003064
:100206007206031D08290030710603195229730866
:10021600F000F00D70107008223E84000008F10016
:10022600840A0008F20000307206031D1C29003003
:100236007106031952297308F000F00D701070084A
:10024600223EF2007008223E84000008013EF000C3
:1002560000300318013E840A0007F100720884008A
:10026600700880007108840A80007308F000F00DA1
:1002760070107008223E84000008F100840A00080D
:10028600F20080307206F0008030033A7002031DDF
:100296004E2920307102031C512952290A2973085C
:0C02A600063A03195829F30AF62808004C
:0E02B20083120313B6016920B6012E20080046
:1002C0000630831603139F00831285018316850170
:1002D0008312870183168701831212109210121461
:1002E0009210F93083169200A4201210921012146A
:1002F0009210F93083169200BA20B220AA208316F9
:100300008117831205108514051185155921C02008
:10031000F32080302506F00080307002031D922902
:100320006430240203189A29B430B6006920C8301A
:10033000B6002E2080302706F00080307002031DAA
:10034000A329643026020318AB29BE30B600692009
:10035000C830B6002E2080302906F00080307002B0
:10036000031DB429643028020318BC29C830B60024
:100370006920C830B6002E2080302B06F000803077
:100380007002031DC52964302A020318CD29C83024
:10039000B6006920BE30B6002E2080302D06F00059
:1003A00080307002031DD62964302C020318DE2928
:1003B000C830B6006920B430B6002E2030082E04B4
:1003C000F1002F083104F20080307206F000803016
:1003D0007002031DED29643071020318F529C8303D
:0E03E000B6006920AA30B60069208729F629E8
:02400E004A2F37
:00000001FF
