:02000000812954
:1000060083120313FB01FA01F9018030F800F10CA9
:10001600F00C031C17287408F90775080318750FE8
:10002600FA070318FB0A0310F01F1F287408FA07C3
:1000360075080318750FFB07FB0CFA0CF90CF80C86
:10004600031C0A287B08F3007A08F2007908F100FD
:060056007808F00008002C
:10005C00831603131208013EF00000300318013E12
:10006C00F10083123408F400F50103200630F2008D
:10007C007008F4007108F500720803194A28F50C91
:10008C00F40CF513FF3E43280430F1007408F00023
:10009C00710803195528F00D7010FF3E4F283030B1
:1000AC007005F3007408F0007508F100F10CF00C09
:1000BC00F113F10CF00CF11370089B000F309D053F
:0600CC0073089D0408000A
:1000D200831603131208013EF00000300318013E9C
:1000E200F10083123408F400F50103200630F20017
:1000F2007008F4007108F500720803198528F50CE0
:10010200F40CF513FF3E7E280430F1007408F00071
:10011200710803199028F00D7010FF3E8A283030C4
:100122007005F3007408F0007508F100F10CF00C92
:10013200F113F10CF00CF113700895000F309705D4
:0601420073089704080099
:0C01480083120313950117129712080090
:10015400831603138710831212150C309D040800B4
:10016400831603130711831212150C309704080029
:0C017400831203139B011D129D12080052
:10018000831603138601FF30831286001030FD00B2
:0E019000FD0BC8280000FF3083168600080013
:10019E00013083120313A200A3010130AA00AB01A8
:1001AE000130AC00AD010130AE00AF010130A40052
:1001BE00A5010130A600A7010130A800A901861FE4
:1001CE00FB28861FFB28A20A0319A30A80302306E8
:1001DE00F0008030033A7002031DF728203022020F
:1001EE00031CFA28FB28E828061F1029061F1029D1
:1001FE00AA0A0319AB0A80302B06F0008030033AAE
:10020E007002031D0C2920302A02031C0F2910290D
:10021E00FD28861E2529861E2529AC0A0319AD0A3E
:10022E0080302D06F0008030033A7002031D212924
:10023E00E8302C02031C242925291229061E3A29EE
:10024E00061E3A29AE0A0319AF0A80302F06F000B7
:10025E008030033A7002031D3629E8302E02031C4B
:10026E0039293A292729861D4F29861D4F29A40A87
:10027E000319A50A80302506F0008030033A70027B
:10028E00031D4B29E8302402031C4E294F293C291B
:10029E00061D6429061D6429A60A0319A70A8030C3
:1002AE002706F0008030033A7002031D6029E83003
:1002BE002602031C632964295129861C7929861C70
:1002CE007929A80A0319A90A80302906F00080307E
:1002DE00033A7002031D7529E8302802031C7829A1
:0602EE00792966290800D1
:0E02F40083120313B4016920B4012E20080008
:100302000630831603139F0083128501831685012D
:10031200831287018316870183121210921012141E
:100322009210F93083169200A42012109210121427
:100332009210F93083169200BA20B220AA208316B6
:100342008117831205108514051185157A21C020A5
:10035200CF2080302306F00080307002031DB329C5
:10036200643022020318BB29B430B4006920C830BB
:10037200B4002E2080302B06F00080307002031D66
:10038200C42964302A020318CC29BE30B400692083
:10039200C830B4002E2080302D06F000803070026C
:1003A200031DD52964302C020318DD29C830B4009E
:1003B2006920C830B4002E2080302F06F000803033
:1003C2007002031DE62964302E020318EE29C8309C
:1003D200B4006920BE30B4002E2080302506F00023
:1003E20080307002031DF729643024020318FF29AC
:1003F200C830B4006920B430B4002E202808260486
:10040200F10027082904F20080307206F0008030E3
:100412007002031D0E2A643071020318162AC830B6
:0E042200B4006920AA30B4006920A829172A66
:02400E004A2F37
:00000001FF
