:0200000089294C
:1000060083120313FB01FA01F9018030F800F10CA9
:10001600F00C031C17287408F90775080318750FE8
:10002600FA070318FB0A0310F01F1F287408FA07C3
:1000360075080318750FFB07FB0CFA0CF90CF80C86
:10004600031C0A287B08F3007A08F2007908F100FD
:060056007808F00008002C
:10005C00831603131208013EF00000300318013E12
:10006C00F10083123608F400F50103200630F2008B
:10007C007008F4007108F500720803194A28F50C91
:10008C00F40CF513FF3E43280430F1007408F00023
:10009C00710803195528F00D7010FF3E4F283030B1
:1000AC007005F3007408F0007508F100F10CF00C09
:1000BC00F113F10CF00CF11370089B000F309D053F
:0600CC0073089D0408000A
:1000D200831603131208013EF00000300318013E9C
:1000E200F10083123608F400F50103200630F20015
:1000F2007008F4007108F500720803198528F50CE0
:10010200F40CF513FF3E7E280430F1007408F00071
:10011200710803199028F00D7010FF3E8A283030C4
:100122007005F3007408F0007508F100F10CF00C92
:10013200F113F10CF00CF113700895000F309705D4
:0601420073089704080099
:1001480083120313A401A501A601A701A801A9010F
:10015800AA01AB01AC01AD01AE01AF01B001B10123
:1001680083168601FF30831286001030FD00FD0BD8
:10017800BB280000FF308316860000308312861BE0
:100188000130A400A5010030061B0130A600A7011C
:100198000030861A0130A800A9010030061A013083
:1001A800AA00AB01003086190130AC00AD01003067
:1001B80006190130AE00AF01003086180130B000DA
:0401C800B101080079
:0C01CC008312031395011712971208000C
:1001D800831603138710831212150C309D04080030
:1001E800831603130711831212150C3097040800A5
:1001F800A420861F0F29A40A0319A50A8030250602
:10020800F00080307002031D0B291E302402031CED
:100218000E290F29FD28061F2129A60A0319A70A56
:1002280080302706F00080307002031D1D291E3023
:100238002602031C202921290F29861E3329A80AF2
:100248000319A90A80302906F00080307002031DC6
:100258002F2919302802031C322933292129061E87
:100268004529AA0A0319AB0A80302B06F000803012
:100278007002031D412919302A02031C442945290B
:100288003329861D5729AC0A0319AD0A80302D067B
:10029800F00080307002031D532919302C02031C12
:1002A800562957294529061D6929AE0A0319AF0A97
:1002B80080302F06F00080307002031D65291E3043
:1002C8002E02031C682969295729861C7B29B00A34
:1002D8000319B10A80303106F00080307002031D26
:1002E80077291E303002031C7A297B2969290800E6
:0E02F80083120313B6016920B6012E20080000
:0C030600831203139B011D129D120800BE
:100312000630831603139F0083128501831685011D
:100322008312870183168701831212109210121012
:100332009210203083169200E620121092101210B2
:1003420092102030831692008321F420EC20831631
:100352008117831205108514051185157C21FC2057
:1003620026082405F00025082705F1002808F005D5
:100372002908F1052A08F0052B08F1052C08F005DB
:100382002D08F1052E087005F20071082F05F30003
:100392008030F000803073067002031DD22972088B
:1003A200033C0318D5297C2126082405F0002508E2
:1003B2002705F1002808F0052908F1052A08F005AB
:1003C2002B08F1052C08F0052D08F1052E08700503
:1003D200F20071082F05F3008030F00080307306C0
:1003E2007002031DF6297208023C031CFE29A0308C
:1003F200B6006920A030B6002E208030F000803098
:1004020031067002031D072A3008023C031C0F2A22
:100412005030B6006920C830B6002E202E082C04B9
:10042200F1002D082F04F2008030F00080307206B7
:100432007002031D1E2A7108023C031C262A643026
:10044200B6006920A030B6002E202A082804F10048
:1004520029082B04F2008030F0008030720670020E
:10046200031D352A7108023C031C3D2AA030B60048
:100472006920A030B6002E2026082404F1002508A9
:100482002704F2008030F000803072067002031DF3
:100492004C2A7108023C031C542AC830B600692059
:0A04A2005030B6002E20B029552A74
:02400E004A2F37
:00000001FF
