:020000007B295A
:1000060083120313FB01FA01F9018030F800F10CA9
:10001600F00C031C17287408F90775080318750FE8
:10002600FA070318FB0A0310F01F1F287408FA07C3
:1000360075080318750FFB07FB0CFA0CF90CF80C86
:10004600031C0A287B08F3007A08F2007908F100FD
:060056007808F00008002C
:10005C00831603131208013EF00000300318013E12
:10006C00F10083123608F400F50103200630F2008B
:10007C007008F4007108F500720803194A28F50C91
:10008C00F40CF513FF3E43280430F1007408F00023
:10009C00710803195528F00D7010FF3E4F283030B1
:1000AC007005F3007408F0007508F100F10CF00C09
:1000BC00F113F10CF00CF11370089B000F309D053F
:0600CC0073089D0408000A
:1000D200831603131208013EF00000300318013E9C
:1000E200F10083123608F400F50103200630F20015
:1000F2007008F4007108F500720803198528F50CE0
:10010200F40CF513FF3E7E280430F1007408F00071
:10011200710803199028F00D7010FF3E8A283030C4
:100122007005F3007408F0007508F100F10CF00C92
:10013200F113F10CF00CF113700895000F309705D4
:0601420073089704080099
:0C01480083120313950117129712080090
:10015400831603138710831212150C309D040800B4
:10016400831603130711831212150C309704080029
:0C017400831203139B011D129D12080052
:10018000831603138601FF30831286001030FD00B2
:10019000FD0BC8280000FF30831686000030831254
:1001A000861B0130A400A5010030061B0130A6000B
:1001B000A7010030861A0130A800A9010030061AF4
:1001C0000130AA00AB01003086190130AC00AD014E
:1001D000003006190130AE00AF0100308618013042
:0601E000B000B1010800AF
:1001E60083120313861F0729A40A0319A50A803060
:1001F6002506F00080307002031D03291E302402FC
:10020600031C06290729F328061F1929A60A03191C
:10021600A70A80302706F00080307002031D1529DA
:100226001E302602031C182919290729861E2B2988
:10023600A80A0319A90A80302906F0008030700246
:10024600031D27291E302802031C2A292B291929B8
:10025600061E3D29AA0A0319AB0A80302B06F000B8
:1002660080307002031D39291E302A02031C3C29E6
:100276003D292B29861D4F29AC0A0319AD0A80306A
:100286002D06F00080307002031D4B291E302C0213
:10029600031C4E294F293D29061D6129AE0A031963
:1002A600AF0A80302F06F00080307002031D5D29F2
:1002B6001E302E02031C602961294F29861C7329D2
:1002C600B00A0319B10A80303106F000803070029E
:1002D600031D6F291E303002031C72297329612900
:0202E60008000E
:0E02E80083120313B6016920B6012E20080010
:1002F6000630831603139F0083128501831685013A
:10030600831287018316870183121210921012142A
:100316009210F93083169200A42012109210121433
:100326009210F93083169200BA20B220AA208316C2
:100336008117831205108514051185157421C020B7
:10034600F32026082405F00025082705F1002808D3
:10035600F0052908F1052A08F0052B08F1052C08F7
:10036600F0052D08F1052E087005F20071082F051D
:10037600F3008030F000803073067002031DC5293B
:100386007208183C0318C829742126082405F000B1
:1003960025082705F1002808F0052908F1052A088F
:1003A600F0052B08F1052C08F0052D08F1052E089F
:1003B6007005F20071082F05F30080307306F00017
:1003C60080307002031DE929163072020318F129E4
:1003D600A030B6006920A030B6002E20803031064D
:1003E600F00080307002031DFA291630300203181F
:1003F600022A5030B6006920C830B6002E202E08DA
:100406002C04F1002D082F04F20080307206F00053
:1004160080307002031D112A163071020318192A42
:100426006430B6006920A030B6002E202A082804C1
:10043600F10029082B04F20080307206F0008030AB
:100446007002031D282A163071020318302AA030C4
:10045600B6006920A030B6002E2026082404F1003C
:1004660025082704F20080307206F0008030700202
:10047600031D3F2A163071020318472AC830B600FA
:0C04860069205030B6002E20A229482A20
:02400E004A2F37
:00000001FF
