:02000000732962
:1000060083120313FB01FA01F9018030F800F10CA9
:10001600F00C031C17287408F90775080318750FE8
:10002600FA070318FB0A0310F01F1F287408FA07C3
:1000360075080318750FFB07FB0CFA0CF90CF80C86
:10004600031C0A287B08F3007A08F2007908F100FD
:060056007808F00008002C
:10005C00831603131208013EF00000300318013E12
:10006C00F10083123408F400F50103200630F2008D
:10007C007008F4007108F500720803194A28F50C91
:10008C00F40CF513FF3E43280430F1007408F00023
:10009C00710803195528F00D7010FF3E4F283030B1
:1000AC007005F3007408F0007508F100F10CF00C09
:1000BC00F113F10CF00CF11370089B000F309D053F
:0600CC0073089D0408000A
:1000D200831603131208013EF00000300318013E9C
:1000E200F10083123408F400F50103200630F20017
:1000F2007008F4007108F500720803198528F50CE0
:10010200F40CF513FF3E7E280430F1007408F00071
:10011200710803199028F00D7010FF3E8A283030C4
:100122007005F3007408F0007508F100F10CF00C92
:10013200F113F10CF00CF113700895000F309705D4
:0601420073089704080099
:0C01480083120313950117129712080090
:10015400831603138710831212150C309D040800B4
:10016400831603130711831212150C309704080029
:0C017400831203139B011D129D12080052
:10018000831603138601FF30831286001030FD00B2
:0E019000FD0BC8280000FF3083168600080013
:10019E00013083120313A200A3010130AA00AB01A8
:1001AE000130AC00AD010130AE00AF010130A40052
:1001BE00A5010130A600A7010130A800A901861FE4
:1001CE00F928A20A0319A30A80302306F000803012
:1001DE00013A7002031DF528F4302202031CF828A0
:1001EE00F928E628061F0C29AA0A0319AB0A803043
:1001FE002B06F0008030013A7002031D0829F430FE
:10020E002A02031C0B290C29F928861E1F29AC0A69
:10021E000319AD0A80302D06F0008030013A7002CD
:10022E00031D1B29F4302C02031C1E291F290C2927
:10023E00061E3229AE0A0319AF0A80302F06F000CF
:10024E008030013A7002031D2E29F4302E02031C59
:10025E00312932291F29861D4529A40A0319A50A09
:10026E0080302506F0008030013A7002031D4129CE
:10027E00F4302402031C442945293229061D58292D
:10028E00A60A0319A70A80302706F0008030013A2B
:10029E007002031D5429F4302602031C57295829D5
:1002AE004529861C6B29A80A0319A90A803029063C
:1002BE00F0008030013A7002031D6729F4302802E5
:0A02CE00031C6A296B295829080057
:0E02D80083120313B4016920B4012E20080024
:1002E6000630831603139F0083128501831685014A
:1002F600831287018316870183121210921012103F
:100306009210633083169200A420121092101210DD
:100316009210633083169200BA20B220AA200510EC
:100326008514051185156C21C020CF202E082C05BB
:10033600F1002D082F05F20080307206F0008030A3
:100346007002031DA829C83071020318AD29FF30B9
:08035600B40069209729AE29CB
:02400E004A2F37
:00000001FF
